:10000000000002205D0300004503000047030000DC
:10001000490300004B0300004D03000000000000F6
:100020000000000000000000000000004F0300007E
:1000300051030000000000005303000055030000BE
:100040004D540000C107040041480400570300005C
:100050005703000057030000915E000099670000FD
:100060005703000057030000570300005703000028
:1000700057030000B5E203005703000057030000D8
:1000800057030000F135000057030000570300003C
:1000900057030000570300005703000057030000F8
:1000A00057030000570300005703000057030000E8
:1000B000570300005703000000000000000000008C
:1000C00057030000570300005703000057030000C8
:1000D000E5DA030057030000570300005703000050
:1000E00057030000000000000000000000000000B6
:1000F000000000005703000000000000570300004C
:1001000000000000000000000000000000000000EF
:1001100000000000000000000000000000000000DF
:1001200000000000000000000000000000000000CF
:1001300000000000000000000000000000000000BF
:1001400000000000000000000000000000000000AF
:10015000000000000000000000000000000000009F
:10016000000000000000000000000000000000008F
:10017000000000000000000000000000000000007F
:10018000000000000000000000000000000000006F
:10019000000000000000000000000000000000005F
:1001A000000000000000000000000000000000004F
:1001B000000000000000000000000000000000003F
:1001C000000000000000000000000000000000002F
:1001D000000000000000000000000000000000001F
:1001E000000000000000000000000000000000000F
:1001F00000000000000000000000000000000000FF
:10020000314932480A1A02D0072291438D463049BB
:1002100030480A1A06D00722914381F30988022246
:1002200082F314882C482D492D4A00F03CF82D48C3
:100230002D492E4A00F037F82D482E492E4A00F05D
:1002400032F82E482E492F4A00F02DF82E482F491B
:100250002F4A00F028F82F482F49304A00F023F8A1
:100260002F483049304A00F01EF83048304900220B
:1002700000F024F82F483049002200F01FF82F4AE0
:1002800090471F481F49884205D00268043003B4D4
:10029000904703BCF7E700208646EC46002000218B
:1002A000274A9047FEE7884207D0521A05D00378C4
:1002B00001300B700131013AF9D17047884202D008
:1002C00002700130FAE770470000022000E00120D0
:1002D00000000220000002202CDB040000000020AF
:1002E000F8000020B8030000B80300004C4A0400E6
:1002F0002CDB04000000002000000020C04A0400A5
:10030000C04A0400C04A0400C04A0400C04A0400B5
:10031000C04A0400C04A0400C04A04002CDB0400A8
:1003200024DC0400F8000020F8000020F800002081
:10033000271C0120281C01202C1C01208503000003
:10034000F17E0000FEE7FEE7FEE7FEE7FEE7FEE7E0
:10035000FEE7FEE7FEE7FEE700F002B8FFF7FCBFAE
:100360000F484FF00701884385460E4880470E48E6
:10037000016841F470010160BFF34F8FBFF36F8FCD
:10038000FFF73EBF09480A490A4A884207D0521A75
:1003900005D0037801300B700131013AF9D1704773
:1003A00000000220C519000088ED00E0C04A0400EA
:0803B000000000200000002005
:1003B80000487047201C0120FEE7000000B585B00A
:1003C8000190019B002B0AD0074B43F001030393D4
:1003D800019B9B010293039B0298984700E000BF92
:1003E80005B05DF804FB00BFD04A040000B583B037
:1003F8000190019B002B0AD04FF47A70FFF7DEFFC3
:10040800019B013B0193019B002BF5D100E000BF4C
:1004180003B05DF804FB08B507F052FF00BF08BD44
:1004280000B589B0039002910192019B002B33D053
:100438000023079303230693029A079B1344019A08
:100448001946002007F0BEFE0590079A059B134445
:100458000793019A059BD31A0193059B002B13D18F
:100468000F4B1B7883F00103DBB2002B13D1012063
:10047800FFF7BCFF069B013B0693069B002B03D1AD
:10048800074B00221A7007E0054B01221A70019BE6
:10049800002BD1D100E000BF00BF09B05DF804FB1C
:1004A800F800002000B585B003900291054B009339
:1004B8004023054A0299039800F012F800BF05B0DE
:1004C8005DF804FB29040000FC00002082B00190C4
:1004D80000BF02B0704782B0019000BF02B0704701
:1004E80000B5A1B00590049103920293049804F01A
:1004F80025F9039B1593029B16930023179300235A
:100508008DF8603000231993229B1A9300231F93C0
:100518000FA91F9B0822049804F0EAF908231F93E7
:10052800119B1293BDF84030ADF84C30BDF8423005
:10053800ADF84E3000238DF851309DF83C3003F073
:100548000303DBB2012B26D10F9BC3F395231C9326
:100558009DF83C30C3F3C203DBB28DF85030BDF8D0
:100568003C30C3F38313DBB21B931B9B9A0009A98E
:100578001F9B049804F0BCF91B9B9B001F9A134413
:100588001F9312AA09A915AB009313461B9A1C982E
:1005980000F0C8FE2FE09DF83C3003F00303DBB207
:1005A800022B28D1BDF83E30C3F389139BB21E93AA
:1005B8009DF83C30C3F3C203DBB28DF850301E9B6C
:1005C800082B28BF08231D9307A91F9B1D9A049871
:1005D80004F08EF91F9A1D9B13441F931E9A1D9BAE
:1005E800D31A1E9315AB12AA07A81D9900F03CFF59
:1005F8001E9B002BE3D1049804F0AFF800BF21B094
:100608005DF804FB82B00190019BDB6801225A71FE
:1006180000BF02B07047000000B583B04FF0FF3351
:100628000193FFF7F8FE0421084800F095FD0190BA
:10063800019B002B03DA0649412003F075F90348B2
:10064800FFF7E0FF00BF03B05DF804FB9C4A04001D
:10065800E84A040000B583B001900091019B1B6833
:100668001B6800990198984700BF03B05DF804FB28
:1006780000B583B00190019B1B685B68019898479F
:1006880000BF03B05DF804FB00B583B00190019B87
:100698001B689B680198984700BF03B05DF804FB8E
:1006A80082B001900B468DF80330019BDB689DF802
:1006B80003201A7100BF02B0704782B00190019BFD
:1006C800DB681B79184602B0704782B00190019B25
:1006D800DB6801225A7100BF02B0704782B00190F6
:1006E800019BDB685B79184602B0704700B585B09E
:1006F80001900091154BFF229A60144B00221A605A
:10070800124B00225A60114B0022C3F818240F4BD9
:100718000022C3F814240D4B002283F820240C482F
:1007280003F070FF0390039B002B01D0039B08E0AC
:10073800084804F076F9084A084BD31ADB080293F4
:100748000023184605B05DF804FB00BFA402002092
:10075800AC4A04004C4B04009C4A04004C4A040078
:10076800024A034BD31ADB08184670479C4A040018
:100778004C4A040000B587B001900B468DF8033051
:100788009DF80330002B1FD0FFF7EAFF04900023E9
:10079800059313E0059B9B000E4A13440393039BA8
:1007A8001B881A46019B1B689A4204D1019B059A33
:1007B8001A60002309E0059B01330593059A049B01
:1007C8009A42E7D3052300E00023184607B05DF8F6
:1007D80004FB00BF0000002000B585B001900B4667
:1007E8008DF803309DF8032001AB11461846FFF73A
:1007F800C1FF0346002B07D1019BDB00054A1344C8
:100808000393039B1B6800E00023184605B05DF8BE
:1008180004FB00BF4C4A040084B001900B468DF8DD
:100828000330019BDB00174A134402939DF8033001
:10083800013B032B1CD801A252F823F055080000F5
:100848005D080000650800006F08000002238DF8AD
:100858000F3011E004238DF80F300DE0029B1B7957
:100868008DF80F3008E0029B5B798DF80F3003E0BC
:1008780000238DF80F3000BF9DF80F30184604B0E4
:10088800704700BF4C4A040084B0019000910023D7
:100898008DF80F30019B1B7803F00403DBB2002BAB
:1008A80024D0019B1B78C3F30103DBB2012B02D0D8
:1008B800022B0CD017E0009B1B68019A1288C2F328
:1008C8008312D2B213449A1C009B1A600BE0009B5F
:1008D8001B68019A5288C2F3891292B213449A1C77
:1008E800009B1A6000BF01238DF80F309DF80F3070
:1008F800184604B07047000000B58BB00023ADF86F
:1009080026303E4803F0A0F93D4803F09DF93D4BE1
:100918005B6804933B4B9B680693049A069B1340C1
:1009280002339B00374A13440433089304AB194637
:100938000898FFF7A9FF0346002B09D0049A069BE5
:10094800134002339B002F4A134404330893EDE706
:1009580000BF0023079311E0049B5A1C0492069AD7
:100968001340079A920001A90A44264902339B00C2
:100978000B445B681360079B01330793079B012BAC
:10098800EAD99DF80430C3F30103DBB2012B10D080
:10099800022B1CD1BDF80A30ADF82630BDF8063060
:1009A800C3F389139BB203339A08049B134404933B
:1009B80013E0BDF80A30ADF82630BDF80430C3F3B3
:1009C8008313DBB21A46049B1344049305E00E49D3
:1009D8004FF4BF7002F0A8FF00BF094803F040F9C8
:1009E8000590059B002B02D0049B064A5360BDF876
:1009F800263018460BB05DF804FB00BFBC0600208B
:100A0800B8060020A40200205C4B040000B585B0A5
:100A18000021074803F0A1F80390039B0293029B6F
:100A280083F310030193019B184605B05DF804FB9E
:100A3800C006002000B589B003900291019200938E
:100A4800039B1B0C0793FFF7E1FF0690FFF788FE57
:100A58000246079B934204D3214940F2A31002F0B7
:100A680063FF069B1904009B5A1C0A9B1340079AB4
:100A78000A431C4902339B000B445A60009A0A9BA4
:100A8800134002339B00174A134404330593039B16
:100A980003F00703D9B2059A137861F3C5031370FD
:100AA800019B03F00F03D9B2059A138861F38913E8
:100AB8001380029BC3F31501059A136861F39F2302
:100AC8001360059A1378012161F301031370059AE5
:100AD80013786FF38203137000BF09B05DF804FB4D
:100AE8005C4B0400A402002000B58BB00390029177
:100AF80013468DF80730039B0233089301238DF8C2
:100B08001F30002002F06EF93E4B1A68029B1A60F3
:100B18003C4B9A683B4B59683A4B1B68CB1A1344B9
:100B28000133099314E00121374803F05DF8FFF71A
:100B3800E3FE05900599344803F056F8314B9A685E
:100B4800304B59682F4B1B68CB1A13440133099358
:100B5800089A099B9A42E6D89DF81F30002B48D086
:100B6800002304939DF80730002B17D09DF8103010
:100B7800012262F301038DF810309DF8103043F024
:100B880004038DF81030039B03F00F03DAB2BDF8AD
:100B9800103062F38913ADF8103016E09DF810306C
:100BA800022262F301038DF810309DF8103043F0F3
:100BB80004038DF81030039BC3F309039AB2BDF800
:100BC800123062F38F13ADF812300E4B1A680D4BCA
:100BD8009B68134002339B000A4A1344043306936C
:100BE800049A069B1A60074B1A68089B1344054A27
:100BF8001360002002F00AF99DF81F3018460BB068
:100C08005DF804FBA4020020C006002000B58BB0EC
:100C180005900491039202931F4B9B68079306ABC0
:100C2800012219460298FFF75FFF0346002B24D0E4
:100C3800069B023309930023089311E0089B9B004D
:100C4800039A1A44099B591C099107990B40126889
:100C5800114902339B000B445A60089B01330893E7
:100C6800089A029B9A42E9D3069A079B0093134677
:100C7800029A04990598FFF7DDFE074B93F8203494
:100C8800002B05D000BF00F065F80346002BFAD111
:100C980000BF0BB05DF804FBA402002000B583B0D0
:100CA800019000910023002200990198FFF7AEFF00
:100CB80000BF03B05DF804FB00B587B00390029154
:100CC8000192019B059305AA012302990398FFF756
:100CD8009DFF00BF07B05DF804FB00B587B0039027
:100CE800029101920093019B0493009B059304AA2F
:100CF800022302990398FFF789FF00BF07B05DF848
:100D080004FB00B58BB00390029101920093019B04
:100D18000593009B06930C9B07930D9B08930E9BD2
:100D2800099305AA052302990398FFF76FFF00BFEF
:100D38000BB05DF804FB0000054B5A68044B1B68B8
:100D48009A420CBF01230023DBB21846704700BF4C
:100D5800A402002000B599B0FFF7EEFF0346002B70
:100D680001D00023B7E19B4B0022C3F81824BFF33E
:100D78004F8F00BF974B5B680493964B9B6810930B
:100D8800049A109B134002339B00924A1344043385
:100D98001193002317930023169300230F9304AB9A
:100DA80019461198FFF770FD0346002B19D0894B9F
:100DB800D3F81834002B14D1864B1A68049B9A4236
:100DC80005D8844B1B68834A5360002383E1049A47
:100DD800109B134002339B007E4A13440433119343
:100DE800DDE70023159311E0049B5A1C0492109A26
:100DF8001340159A920001A90A44764902339B00D0
:100E08000B445B681360159B01331593159B012BED
:100E1800EAD99DF8043003F00303DBB2022B40F05B
:100E28009C80BDF80630C3F389139BB20D93BDF8BF
:100E38000630C3F389139BB2502B28BF50239BB2B3
:100E48000C930C9BC3F309039AB2BDF8063062F306
:100E58008F13ADF806300C9B08330B939DF80430C4
:100E6800C3F3C203DBB20F930B995B4803F0D5FBC6
:100E78001790179B002B00F0D180179803F05EFCA9
:100E880001A9169B0822179803F014FD169B083336
:100E98001693049BDA43109B134001339B000A937B
:100EA8000C9A0A9B9A4242D90A9B002B08D0049AB2
:100EB800109B134002339B00464A1344043300E05E
:100EC800464B08930A9B002B02D00A9BDBB201E039
:100ED8000C9BDBB28DF81F300A9B002B01D03F4BD7
:100EE80000E0002306930A9B002B06D00C9BDAB285
:100EF8000A9BDBB2D31ADBB200E000238DF817306F
:100F08009DF81F20169B0899179803F0D3FC9DF8AD
:100F18001F30169A13441693069B002B16D09DF883
:100F28001720169B0699179803F0C4FC0EE0049A44
:100F3800109B134002339B00264A13440433099341
:100F4800169B0C9A0999179803F0B4FC0D9B033370
:100F58009A08049B1344049360E09DF8043003F05E
:100F68000303DBB2012B59D1BDF80430C3F383135B
:100F7800DBB2062B28BF0623DAB2BDF8043062F3D1
:100F88008913ADF80430BDF80430C3F38313DBB222
:100F980002330E939DF80430C3F3C203DBB20F9300
:100FA8000E9B9B0019460C4803F037FB1790179BC4
:100FB800002B33D0179803F0C1FB01A9169B082218
:100FC800179803F077FC169B0833169300231593A4
:100FD8001BE000BFA4020020AC4A0400B0020020BD
:100FE800049B5A1C0492109A134002339B003C4AFB
:100FF8001344191D169B0422179803F05BFC169BDB
:1010080004331693159B01331593BDF80430C3F3CD
:101018008313DBB21A46159B9342E1D3179B002B2F
:1010280039D02F4BD3F8103414932D4BD3F81834F0
:10103800002B1BD0179803F090FB46E000238DF897
:101048004F301498FFF74AFB0346002B02D00123C8
:101058008DF84F309DF84F30002B03D01799149816
:10106800FFF7F8FA149BDB681B681493149B002B9A
:10107800E4D1179803F071FB002001F0B3FE184B80
:10108800D3F81834002B02D1049B154A5360002072
:1010980001F0BCFE19E0124BD3F81034129306E0AD
:1010A8001298FFF7F1FA129BDB681B681293129BE8
:1010B800002BF5D10B4A0C4BD31ADB081B0443F069
:1010C80002030A491846FFF7E9FDFFF735FE034614
:1010D80083F00103DBB2184619B05DF804FB00BFCA
:1010E800A4020020644A04004C4A0400B84B0400DF
:1010F80000B585B00023039323E0164BD3F81034D2
:10110800029301238DF807300FE00298FFF7D5FA14
:1011180003461A46039B934203D100238DF80730F8
:1011280006E0029BDB681B680293029B002BECD154
:101138009DF80730002B01D0039B07E0039B013388
:101148000393039B092BD8DD4FF0FF33184605B0F6
:101158005DF804FBA402002000B585B001900B46A1
:101168008DF80330FFF7C4FF0390039BB3F1FF3FF3
:1011780001D1039B22E0039BDBB219460198FFF7DC
:101188008FFA104BD3F81034002B08D10D4A019B6D
:10119800C2F81034019BDB6800221A600DE0094B8D
:1011A800D3F81034DA68019BDB6812681A60054BC3
:1011B800D3F81034DB68019A1A60039B184605B00F
:1011C8005DF804FBA402002000B583B00D4BD3F8F2
:1011D800103401930B4B012283F8202409E0019875
:1011E800FFF773FA0198FFF743FA019BDB681B6866
:1011F8000193019B002BF2D100BF00BF03B05DF843
:1012080004FB00BFA402002082B00190009100BF3F
:1012180002B0704710B584B003900291039BDB883D
:10122800002B0AD0039BDB881A461F4B00931346FA
:101238001E4A1F49029802F041FE039B1B7A052BA8
:101248002ED0039B5B7A002B12D0039B9B881A46F7
:10125800039B1B7A19461046FFF7DEFA03461A4627
:10126800144B53F822301A461349029802F026FE0E
:10127800039B1B6819460298FFF7C6FF039B1B7A5E
:101288001A460E4B53F82240039B9B8800211846B0
:10129800FFF7A2FA034622460949029802F00EFE19
:1012A80000BF04B010BD00BFEC4B0400FC4B0400B1
:1012B800344C04001C0000204C4C040008000020A2
:1012C800504C040000B585B00390029113468DF888
:1012D8000730039B1B7A052B0FD0039B5B7A002BEF
:1012E80006D00D4B1B681A460C49029802F0E6FD21
:1012F8000B49029802F0E2FD07E09DF80730002B49
:1013080003D00749029802F0D9FD029802F0B4FD13
:1013180000BF05B05DF804FB1C0000204C4C040025
:101328005C4C040030B58BB007900691059204938D
:101338000E9B1B7B8DF827300E9B00221A730E998B
:101348000498FFF767FF059B062B7FD801A252F888
:1013580023F000BF791300008313000093130000EB
:10136800A7130000C5130000ED1300001D140000B2
:1013780007990E9802F0A2FD69E0069B1B681A46C1
:1013880007990E9802F09AFD61E0069B1A68069B81
:1013980004331B6807990E9802F090FD57E0069BEE
:1013A8001A68069B04331968069B08331B68009368
:1013B8000B4607990E9802F081FD48E0069B1968D4
:1013C800069B04331868069B08331B68069A0C3280
:1013D80012680192009303460A4607990E9802F094
:1013E8006DFD34E0069B1868069B04331C68069B59
:1013F80008331B68069A0C3212680699103109687E
:101408000291019200932346024607990E9802F032
:1014180055FD1CE0069B1C68069B04331D68069B53
:1014280008331B68069A0C3212680699103109684D
:1014380006981430006803900291019200932B469D
:10144800224607990E9802F039FD00E000BF0022FD
:101458000E990498FFF736FF0E9B9DF827201A7304
:1014680000BF0BB030BD00BF00B587B0039002913C
:1014780001920093029B082B60D8009B1B7B8DF880
:101488001330009B00221A7300990198FFF7C2FEDF
:101498000023059314E0059A029B9A4209D2039A05
:1014A800059B13441B781A462649009802F006FD4E
:1014B80003E02549009802F001FD059B01330593DF
:1014C800059B072BE7D92149009802F0F7FC002378
:1014D800059326E0059A029B9A421BD2039A059B24
:1014E80013441B788DF812309DF812307E2B0AD8E1
:1014F8009DF81230184642F09DF90346002B02D0A1
:101508009DF8123000E02E231A461149009802F087
:10151800D5FC03E00F49009802F0D0FC059B01338D
:101528000593059B072BD5D9012200990198FFF750
:10153800C9FE009B9DF813201A7300E000BF07B096
:101548005DF804FB604C0400684C04006C4C04001B
:10155800704C0400744C040000B583B00190019BEA
:101568001B68292B04D90B4940F2CD1002F0DCF995
:10157800019B1B681F2B02D84FF0A04306E0019B7C
:101588001B6803F01F02019B1A60034B184603B047
:101598005DF804FB784C04000003005000B585B0EA
:1015A8000190084611461A4603468DF803300B464B
:1015B8008DF8023013468DF8013001AB1846FFF75D
:1015C800CBFF03909DF803209DF802305B001A437F
:1015D8009DF801309B001A439DF818301B0242EA1F
:1015E80003019DF81C301B04019A1943039B02F563
:1015F800E07243F8221000BF05B05DF804FB00B5A7
:1016080085B0039000230193002300930023012257
:1016180001210398FFF7C2FF00BF05B05DF804FB86
:1016280000B585B003900B468DF80B309DF80B3054
:101638000022019200220092002200210398FFF765
:10164800ADFF00BF05B05DF804FB00B585B00190A3
:1016580001AB1846FFF780FF0390019B012202FAB5
:1016680003F31946039800F069F800BF05B05DF868
:1016780004FB00B585B0019001AB1846FFF76CFF7D
:101688000390019B012202FA03F31946039800F024
:101698005FF800BF05B05DF804FB00B585B00190A8
:1016A80001AB1846FFF758FF0390039BD3F80435A6
:1016B8000293029BDA43019B012101FA03F31A40CA
:1016C800039BC3F80825019B01229A40029B1A40FC
:1016D800039BC3F80C2500BF05B05DF804FB00B5FB
:1016E80083B001900091009B002B03D10198FFF774
:1016F800C0FF02E00198FFF7A8FF00BF03B05DF844
:1017080004FB00B585B0019001AB1846FFF724FF34
:101718000390039800F00AF80246019B22FA03F3AB
:1017280003F00103184605B05DF804FB82B0019090
:10173800019BD3F80435184602B0704782B0019077
:101748000091019B009AC3F8082500BF02B07047BA
:1017580082B001900091019B009AC3F80C2500BF4C
:1017680002B0704700B585B00190019B032B03D9E7
:1017780011493A2002F0D8F8104A019B13441B780B
:101788001846FFF7BEFF0346002B14BF01230023B2
:101798008DF80F309DF80F30002B14BF0123002364
:1017A800DBB283F00103DBB203F00103DBB21846BE
:1017B80005B05DF804FB00BFAC4C0400F44C040019
:1017C80000B583B00190019B032B03D90749412041
:1017D80002F0AAF8064A019B13441B780021184618
:1017E800FFF77DFF00BF03B05DF804FBAC4C0400BD
:1017F800F44C040000B583B00190019B032B03D97E
:101808000749472002F090F8064A019B13441B78C9
:1018180001211846FFF763FF00BF03B05DF804FB22
:10182800AC4C0400F44C040000B583B000230193D1
:1018380005E00198FFF7DEFF019B01330193019B4F
:10184800032BF6D900BF00BF03B05DF804FB00B559
:1018580083B00023019305E00198FFF7B1FF019BD6
:1018680001330193019B032BF6D900BF00BF03B0DE
:101878005DF804FB00B583B00190019B032B03D9ED
:1018880007495F2002F050F8064A019B13441B7871
:101898001846FFF702FF00BF03B05DF804FB00BF66
:1018A800AC4C0400F44C040000B583B00023019351
:1018B80009E0094A019B13441B781846FFF79FFE6D
:1018C800019B01330193019B032BF2D9FFF7ACFF76
:1018D80000BF03B05DF804FBF44C040000B583B00E
:1018E800002301930AE0094A019B13441B78032152
:1018F8001846FFF795FE019B01330193019B032BCB
:10190800F1D900BF00BF03B05DF804FBF84C040038
:1019180084B001904FF0FF330293002303930DE04E
:101928000A4A039B13441B781A46019B934202D12F
:10193800039B029305E0039B01330393039B032B53
:10194800EED9029B184604B0704700BFF84C04005B
:1019580000B583B00190019B03F00103002B01D077
:10196800FFF7A2FF019B03F00203002B01D0FFF752
:10197800B5FF00BF03B05DF804FB0000BFF34F8F55
:1019880000BF074BDB6803F4E0620549054B1343CE
:10199800CB60BFF34F8F00BF00BF00BFFCE700BFA5
:1019A80000ED00E00400FA05024B034A1A6000BF8C
:1019B800704700BF400000200090D00308B500F039
:1019C800F1F80346002B0ED04FF080430022C3F8F5
:1019D8000C214FF080430022C3F810214FF08043C0
:1019E8000022C3F8382500F0EFF80346002B76D024
:1019F8004FF08053684AD3F80434C2F820354FF0CA
:101A08008053654AD3F80834C2F824354FF0805320
:101A1800614AD3F80C34C2F828354FF080535E4A37
:101A2800D3F81034C2F82C354FF080535A4AD3F803
:101A38001434C2F830354FF08053574AD3F818346D
:101A4800C2F834354FF08053534AD3F81C34C2F8E7
:101A580040354FF08053504AD3F82034C2F844350B
:101A68004FF080534C4AD3F82434C2F848354FF02D
:101A78008053494AD3F82834C2F84C354FF0805384
:101A8800454AD3F82C34C2F850354FF08053424AB7
:101A9800D3F83034C2F854354FF080533E4AD3F867
:101AA8003434C2F860354FF080533B4AD3F83834A9
:101AB800C2F864354FF08053374AD3F83C34C2F843
:101AC80068354FF08053344AD3F84034C2F86C3547
:101AD8004FF08053304AD3F84434C2F8703500F0E0
:101AE80085F80346002B0DD04FF08043D3F800341F
:101AF80003F00103002B05D04FF080436FF0010283
:101B0800C3F80024254BD3F88830244A43F47003E3
:101B1800C2F88830BFF34F8F00BFBFF36F8F00BF8D
:101B28004FF01023D3F80032002B05DB4FF01023C1
:101B3800D3F80432002B2BDA194B0122C3F8042501
:101B480000BF174BD3F80034002BFAD04FF0102306
:101B58001222C3F8002200BF114BD3F80034002B27
:101B6800FAD04FF010231222C3F8042200BF0C4B06
:101B7800D3F80034002BFAD0094B0022C3F804250F
:101B880000BF074BD3F80034002BFAD0FFF7F6FE5E
:101B9800FFF70AFF00BF08BD00C0004000ED00E0ED
:101BA80000E00140064B1B680D2B05D1054B1B6857
:101BB800002B01D1012300E000231846704700BF25
:101BC8003001001034010010064B1B680D2B05D1A5
:101BD800054B1B68002B01D1012300E000231846A8
:101BE800704700BF3001001034010010064B1B681D
:101BF8000D2B05D1054B1B68002B01D1012300E0FB
:101C080000231846704700BF30010010340100104F
:101C180084B003468DF807309DF807305B08DBB2C7
:101C28001A460D4B9B5C8DF80F309DF8073003F07A
:101C38000103002B04D09DF80F301B09DBB204E030
:101C48009DF80F3003F00F03DBB28DF80E309DF8CE
:101C58000E30184604B070470007002084B00346D1
:101C68000A468DF8073013468DF806309DF8073080
:101C780003F00103002B01D00F2300E0F0238DF8BF
:101C88000F309DF8073003F00103002B04D09DF8B6
:101C980006301B01DBB201E09DF806308DF80E30EE
:101CA8009DF807305B08DBB21A46114B9A5C9DF829
:101CB80007305B08DBB219469DF80F301340DAB2E3
:101CC8000B4B5A549DF807305B08DBB21A46084B99
:101CD8009A5C9DF807305B08DBB219469DF80E3018
:101CE8001343DAB2024B5A5400BF04B0704700BF26
:101CF8000007002000B585B003468DF807300023A3
:101D0800039310E00F4B1A68039BDB001344029304
:101D1800029B1B789DF807209A4201D1029B0DE097
:101D2800039B01330393084B1B781A46039B93428A
:101D3800E8DB0649882001F0F7FD0023184605B0C6
:101D48005DF804FBC8060020CC060020084D0400FE
:101D580000B585B003460A468DF8073013468DF85E
:101D680006309DF807301846FFF7C4FF0390039B21
:101D7800002B0BD0039B5B68002B07D0039B5B6891
:101D88009DF806109DF807201046984700BF05B03B
:101D98005DF804FB2DE9F04F85B003460A468DF83F
:101DA8000F3013468DF80E309DF80F301846FFF7A8
:101DB8002FFF0346042B00F2B48001A252F823F04F
:101DC800DD1D0000431E00005F1E00008F1E000086
:101DD800A51E00009DF80E30002B00F09F809DF896
:101DE8000F3001211846FFF739FF002000F0FAFFF5
:101DF8009DF80F104FF001024FF00003A1F12004ED
:101E0800C1F1200003FA01F702FA04F4274322FA89
:101E180000F0074302FA01F6444BD3E9002346EAEF
:101E2800020100913B430193404BDDE90012C3E9F5
:101E38000012002000F0EAFF70E09DF80E30002B41
:101E480001D0022200E000229DF80F30114618460A
:101E5800FFF704FF65E09DF80E30002B0CD09DF8CD
:101E68000F3003211846FFF7F9FE9DF80F300121C6
:101E78001846FFF76DFF54E09DF80F300121184612
:101E8800FFF7ECFE4DE09DF80E30002B48D19DF891
:101E98000F3004211846FFF7E1FE41E09DF80E30AF
:101EA800002B06D09DF80F3003211846FFF7D6FE09
:101EB80037E09DF80F3000211846FFF7CFFE9DF858
:101EC8000F3000211846FFF743FF002000F08AFF7B
:101ED8009DF80F104FF001024FF00003A1F120060A
:101EE800C1F1200003FA01F502FA06F6354322FA99
:101EF80000F0054302FA01F46FEA04086FEA0509E5
:101F08000A4BD3E9002308EA020A09EA030B074B44
:101F1800C3E900AB002000F079FF02E000BF00E059
:101F280000BF00BF05B0BDE8F08F00BFF806002075
:101F380000B583B00648074B1B685B0800221946AA
:101F480000F0CAFE019000BF03B05DF804FB00BFBB
:101F5800D8060020D006002000B587B001900023E5
:101F6800059328E01C4B1A68059BDB001344049377
:101F7800049B1B78184603F06DFF03468DF80F305D
:101F8800049B5B78012B0CBF01230023DBB21A46AC
:101F98009DF80F309A420CBF012300238DF80E30B4
:101FA800049B1B789DF80E2011461846FFF7F2FE99
:101FB800059B01330593094B1B781A46059B9342F1
:101FC800D0DB074BD3E90023134301D0FFF7B0FF61
:101FD80000BF07B05DF804FBC8060020CC0600204F
:101FE800F806002000B585B001900B468DF8033047
:101FF800019BDBB21846FFF77DFE0390039B1B781D
:10200800184603F027FF03468DF80B30039B5B78D7
:10201800012B0CBF01230023DBB21A469DF80B30BD
:102028009A420CBF012300238DF80A309DF80A302C
:10203800002B06D0054BD3E90023134301D1FFF74A
:1020480077FF00BF05B05DF804FB00BFF80600206D
:1020580000B58BB003900B4601928DF80B30019BB5
:10206800092B01D8072367E003F0E6FD034683F058
:102078000103DBB2002B09D003F08CFD0990099B0A
:102088000893089B002B01D0089B55E02C4A039B22
:1020980013602C4A9DF80B3013702B4A019B136078
:1020A80020220021294841F022FE29494FF0000250
:1020B8004FF00003C1E9002331E09DF80B30DB004D
:1020C800039A1344079303238DF8143000238DF8E3
:1020D80015309DF816306FF300038DF816309DF813
:1020E80016306FF341038DF816309DF816306FF3F4
:1020F80082038DF81630079B9B788DF81530079B67
:102108001B78184605AB134A194603F0A1FD099040
:10211800099B0693069B002B01D0069B0CE09DF8BB
:102128000B305A1E8DF80B20002BC6D10A4A00210D
:102138000A4800F09DFD034618460BB05DF804FB05
:10214800C8060020CC060020D0060020000700208A
:10215800F8060020ED1F0000611F00005C4D040020
:1021680000B583B0114B1B68002B04D1104940F215
:10217800351001F0D9FB002301930CE00B4B1A68D2
:10218800019BDB0013441B780121184603F0DAFD9C
:10219800019B01330193074B1B781A46019B93421D
:1021A800ECD30023184603B05DF804FBC8060020F2
:1021B800084D0400CC06002086B0039002910192DD
:1021C80001238DF817309DF81730214A039B1360BF
:1021D8001F4A029B53601E4A019B9360039B44F273
:1021E8000102934213D0039B44F20202934221D18D
:1021F800019B174AD360164BDB681B881A46144BA1
:102208009A61134BDB685B68114AD36112E0019B4A
:102218000F4A13610E4B1B699B680D4A53610C4BA7
:102228001B691B680A4A9361094B1B695B68084A6A
:10223800D36100BF72B600BF00BF9DF81730DBB294
:10224800002BFAD162B600BF00BF06B0704700BFCE
:102258002007002000B583B002900091019244F25B
:10226800010071466A4600F003F803B000BD00BFE4
:1022780030B58BB007900691059272B600BFFEF795
:10228800A3FF00BFFEF766FD0346002BFAD1079BAC
:1022980044F20102934216D0079B44F20202934291
:1022A8003ED1059B09932C4A2C4BD31ADB081B04FF
:1022B80043F00100099B5B681A46099B1B88284963
:1022C800FEF70BFD39E0059B0893234A234BD31AED
:1022D800DB081B0443F00104089B9D68089B9B686E
:1022E800184602F08BFC03461846089B5B681946A3
:1022F800089B1B68069A02920193009103462A469E
:1023080018492046FEF7FDFC134A144BD31ADB0884
:102318001B0443F0010314491846FEF7BFFC0CE008
:102328000D4A0E4BD31ADB081B0443F00103069A2F
:102338000E491846FEF7C0FC00BF0D4B1B6803F0A2
:102348000103002B00D000BE059A06990798FFF7F5
:1023580033FF00BF0BB030BD644A04004C4A040090
:10236800604D04007C4D0400A44D0400B84D0400E9
:10237800F0ED00E082B00190019B03F00303002B15
:102388000CBF01230023DBB2184602B070470000DF
:1023980082B003468DF807309DF807309AB2064B95
:1023A8001B889A4204D29DF807300133DBB200E063
:1023B8000023184602B070474C07002000B583B0D0
:1023C8000B4B1B788DF807300A4B1B78DBB218468D
:1023D800FFF7DEFF03461A469DF8073093420CBF0D
:1023E80001230023DBB2184603B05DF804FB00BFED
:1023F800480700204907002082B0084B1B788DF859
:102408000730074B1B78DBB29DF807209A420CBFB8
:1024180001230023DBB2184602B0704748070020AA
:102428004907002000B585B003460092ADF8063094
:102438000B46ADF80430BDF8043001339BB2DB0025
:10244800ADF80E300098FFF795FF034683F00103BF
:10245800DBB2002B01D0072317E00E4A009B136064
:10246800BDF80E30009A13440B4A13600B4B002240
:102478001A700B4B00221A700A4ABDF806301380F6
:10248800094ABDF8043013800023184605B05DF8EA
:1024980004FB00BF40070020440700204907002034
:1024A800480700204A0700204C07002000B587B0E5
:1024B80003900B460192ADF80A30334B1B88BDF8E8
:1024C8000A209A4259D84FF6FF73ADF8123000200F
:1024D80000F088FCFFF772FF0346002B0ED12B4B50
:1024E8001B78DBB2ADF81230284B1B78DBB21846EC
:1024F800FFF74EFF03461A46244B1A70002000F0DF
:1025080085FCBDF812304FF6FF72934232D0204B53
:102518001A68BDF81230DB001344019A1A60039B55
:10252800002B1CD0BDF80A30002B18D0194B1B68A3
:10253800BDF812201449098801FB02F21344BDF8C2
:102548000A200399184641F0A9FB114B1A68BDF8F7
:102558001230DB001344BDF80A209A8007E00C4BC8
:102568001A68BDF81230DB00134400229A80002359
:10257800059304E00423059301E009230593059BD3
:10258800184607B05DF804FB4A07002049070020F9
:102598004007002044070020002318467047000029
:1025A80000B585B02FE0204B1B78DBB2ADF80E30BC
:1025B8001E4B1B68BDF80E201D49098801FB02F25D
:1025C800134402931B4B1A68BDF80E30DB0013440A
:1025D8009B88ADF80630174B1A68BDF80E30DB0043
:1025E80013441B680093BDF80620009B114602980F
:1025F80098470D4B1B78DBB21846FFF7C9FE034618
:102608001A46094B1A70FFF7C7FF034683F0010308
:10261800DBB2002B04D0FFF7EFFE0346002BC2D03D
:1026280000BF05B05DF804FB480700204407002000
:102638004A070020400700202DE9F04383B01448E2
:1026480000F0B8FF034600221C461546114BD3E99B
:10265800002314EB020845EB0309CDE900890E4B72
:10266800D3E90023DDE90001904271EB030307D2AF
:10267800DDE9002312F1807643F10007CDE9006718
:10268800DDE900231046194603B0BDE8F08300BF1A
:1026980044000020580700206007002088B00190FF
:1026A8000091019B0793009B0693079BD3E90223A4
:1026B800CDE90423069BD3E90223CDE90223DDE912
:1026C8000423DDE90201904271EB03032CBF0123CF
:1026D8000023DBB2184608B07047000000B585B08B
:1026E80001900B46ADF80230BDF80230082B03D03C
:1026F80007498F2001F018F9019B0393039B1B687E
:10270800039A52681046984700BF05B05DF804FB6D
:10271800DC4D0400F0B589B00190019B5B69002B8A
:1027280003D13349A22001F0FFF800238DF81F30B0
:10273800304B1B78002B56D0019B002B53D0019BAC
:102748001B7FDBB2002B4ED0FFF776FF019BD3E94E
:102758000223904271EB03033DD3019B1B69002BBD
:1027680002D1019B00221A77019B5B690393019BAD
:102778009B69049303AB204A08211846FFF796FE8D
:102788000690069B0593059B002B04D0184AB5219B
:102798000598FFF75FFD019B1B69002B23D0019B68
:1027A8001B7FDBB2002B1ED0019BD3E902230199CA
:1027B800096900200C460546161943EB0507019BDD
:1027C800C3E90267019B19460C4802F071F901231D
:1027D8008DF81F3007E0019B1946084802F068F998
:1027E80001238DF81F309DF81F30184609B0F0BD41
:1027F800DC4D040054070020E5260000304E04009C
:10280800F0B589B0019000910D230793009B002239
:102818001A70019BD3E90245FFF70EFF02460B46EB
:10282800A61A65EB0307CDE90467DDE90423012A4D
:1028380073F100031BDB049BB3F5D40F05D300F041
:10284800ABFA0246154B134403E0019BD3E902237C
:10285800134603934FF41603039A0021104800F01F
:10286800ABFD0790079B002B05D1012313E0002146
:102878000B4800F079FE079B0D2B07D10198FFF755
:1028880049FF03461A46009B1A7003E00549F520E4
:1028980001F04AF80023184609B0F0BDFFFF6900AF
:1028A80044000020DC4D040000B583B0044802F069
:1028B80039F90190019B184603B05DF804FB00BF8D
:1028C800304E040000B583B0044802F04DF9019081
:1028D800019B184603B05DF804FB00BF304E0400AE
:1028E80000B583B0FFF7E0FF0190019B002B02D0F9
:1028F800019B00221A77019B002BF3D100BF00BF78
:1029080003B05DF804FB0000054BD3E9002312F186
:10291800807043F10001024BC3E9000100BF70471A
:102928005807002000B583B00190134B1B68002B9B
:102938001DD0019800F03EFE0F4B1B68D3E902231F
:10294800134623F07F43194600F01AFA0346B3F5FD
:10295800160F04D309494FF4957000F0E5FF064BB4
:102968001B681846FFF7D6FE034B00221A6000BF0B
:1029780003B05DF804FB00BF50070020DC4D0400E5
:1029880000B583B00190FFF757FE02460B46034996
:10299800C1E9002300BF03B05DF804FB6007002015
:1029A80000B585B00190FFF78DFF039000238DF8E7
:1029B8000B30039B002B48D02B4B1B68002B03D1FB
:1029C80001238DF80B3019E0039BD3E90201264B54
:1029D8001B68D3E90223904271EB03030ED2012353
:1029E8008DF80B30204B1B681B7FDBB2002B05D00A
:1029F8001D4B1B6819461D4802F05AF89DF80B300C
:102A0800002B2AD0FFF750FF03900DF10A03194657
:102A18000398FFF7F5FE0346002B12D0124B1B68F4
:102A2800002B02D1019800F0D3FB0F4A039B1360DF
:102A38009DF80A3083F00103DBB2002BB3D000BF4E
:102A48000EE0094B00221A60ADE7074B1B68002B0C
:102A580005D1019800F0D2FB01E000BF00E000BF03
:102A680000BF05B05DF804FB50070020304E04009D
:102A780000B587B001902C4A03AB1946104601F007
:102A88003FF8059048E0059B1B78022B2ED0022BBF
:102A980032DC002B02D0012B14D02DE0059B5B68A3
:102AA8001B7FDBB283F00103DBB2002B26D0059B32
:102AB8005B6801221A77059B5B6819461B4801F081
:102AC800F7FF1BE0059B5A68194B1B689A4203D114
:102AD800174B00221A6012E0059B5B6819461348E1
:102AE80002F056F803468DF8133008E0FFF7F8FEB9
:102AF800104B01221A7002E000BF00E000BF0A4A32
:102B080003AB1946104601F014F8074A03AB1946FF
:102B1800104600F0F5FF0590059B002BB3D100BFD0
:102B280000BF07B05DF804FBC0070020304E04006A
:102B3800500700205407002000B583B00190019889
:102B480000F005FD0346002B01D0FFF7DDFE002154
:102B5800019800F01AFD0346002B02D00198FFF7F8
:102B6800E1FE0121019800F010FD0346002B02D080
:102B78000198FFF705FF0198FFF77AFF0198FFF723
:102B88000FFF00BF03B05DF804FB000008B5024862
:102B980000F01DFD00BF08BD4400002000B585B051
:102BA800034600918DF80730114A02AB19461046CA
:102BB80000F079FF0390039B002B13D0039B9DF833
:102BC80007201A70039B009A5A60094A02AB1946FB
:102BD800104600F081FF0346002B01D0FFF7D6FF17
:102BE800002300E00423184605B05DF804FB00BF8D
:102BF800C007002000B583B00023ADF800300623DD
:102C08008DF80230144808235822144900F018FFA0
:102C18000190019B002B01D0019B19E06B46104AE3
:102C28001946104800F056FA0190019B002B01D07C
:102C3800019B0DE001210B4800F078FC01230A4AB2
:102C48000121084800F0F0FA084B01221A70019B94
:102C5800184603B05DF804FBC00700206807002091
:102C6800412B000044000020FFFF7F005407002094
:102C780000B587B003900B4601928DF80B30039B8B
:102C8800002B04D1134940F22E2000F04DFE019B89
:102C9800002B04D10F4940F22F2000F045FE019B84
:102CA800002B01D1072310E0039B1B680593059BAC
:102CB800019A5A619DF80B30012B0CBF01230023A8
:102CC800DBB21A46059B1A610023184607B05DF867
:102CD80004FB00BFDC4D0400F0B587B003900291FF
:102CE8000192039B002B04D1164940F23E2000F0CC
:102CF8001BFE039B0593059B1B7FDBB2002B01D0BA
:102D080000231CE0059B019A9A61FFF795FC024697
:102D18000B46029900200C460546161943EB050799
:102D2800059BC3E90267059B1B69002B02D0059B25
:102D3800029A1A6105990020FFF730FF03461846EA
:102D480007B0F0BDDC4D040000B585B00190019BD3
:102D5800002B04D109494FF4157000F0E5FD019BE3
:102D68000393039B00221A7703990120FFF716FFAC
:102D78000346184605B05DF804FB00BFDC4D0400AF
:102D880082B001900091019A009BD31A23F07F43EF
:102D9800184602B07047000008B5034800F00AFC66
:102DA8000346184608BD00BF4400002072B600BFA5
:102DB800034B1B680133024A136000BF704700BF12
:102DC800D4070020064B1B68013B054A1360044BDF
:102DD8001B68002B01D162B600BF00BF704700BF5F
:102DE800D407002000B583B0019000F025F8034611
:102DF800012B03D00449432000F096FDFFF7D6FFCE
:102E080000BF03B05DF804FB3C4E040000B583B07E
:102E180003468DF8073000F00FF80346012B03D066
:102E28000449512000F080FDFFF7CCFF00BF03B03C
:102E38005DF804FB3C4E040084B0EFF30583019376
:102E4800019BC3F308030393039B002B0DD1EFF3FE
:102E580014830093009B0293029B03F00103002B51
:102E68000CBF01230023DBB200E00123184604B0A5
:102E78007047000082B003468DF807309DF8073090
:102E880003F01F0205499DF907305B09012000FA8C
:102E980002F241F8232000BF02B0704700E100E0D1
:102EA80082B003468DF807309DF8073003F01F0203
:102EB80006499DF907305B09012000FA02F2403308
:102EC80041F8232000BF02B0704700BF00E100E0D6
:102ED80082B0034600918DF807309DF90730002B2A
:102EE8000CDA009BDAB20C499DF8073003F00F03A7
:102EF800043B5201D2B20B441A7609E0009BDAB2C5
:102F080006499DF907305201D2B20B4483F80023D9
:102F180000BF02B0704700BF00ED00E000E100E034
:102F280000B583B003460A468DF8073013468DF87E
:102F380006309DF80630072B03D908496B2000F0AE
:102F4800F3FC9DF806209DF9073011461846FFF757
:102F5800BFFF00BF03B05DF804FB00BF944E040040
:102F680000B583B003468DF807309DF90730184641
:102F7800FFF780FF00BF03B05DF804FB00B585B024
:102F88000190019B002B0AD0074B43F001030393E8
:102F9800019B9B010293039B0298984700E000BFA6
:102FA80005B05DF804FB00BFA04F040084B0039097
:102FB80002910192039B029A02F5A872019943F8C3
:102FC800221000BF04B0704782B001900091019BAD
:102FD800009A02F5A87253F82230184602B07047DA
:102FE80082B001900091019B009AC3F8042300BFAE
:102FF80002B0704782B001900091019B009AC3F81B
:10300800082300BF02B0704782B001900B46ADF8AC
:103018000230BDF80230019A13441B68184602B00A
:10302800704784B001900B46ADF80230BDF802300D
:10303800019A134400221A60BDF80230019A134421
:103048001B680393039B00BF04B0704782B00190D4
:10305800019BD3F80435184602B0704700B583B019
:1030680001900091009BB3F5805F04D306494FF4AB
:10307800BE7000F059FC019B009AC3F8082500BFF8
:1030880003B05DF804FB00BFCC4E040082B0019091
:103098000B468DF803309DF80320019B13441A4614
:1030A8000123136000BF02B0704782B00190009105
:1030B800019B009AC3F8442300BF02B0704782B056
:1030C80001900091019B009AC3F8482300BF02B009
:1030D8007047000000B587B0039002910192039BEE
:1030E800002B03D13349552000F01EFC029B002B16
:1030F80003D13049562000F017FC019B002B03D167
:103108002C49572000F010FC039B5B7919462A4A8A
:10311800019B42F82130039B5B79284ADB0013446A
:103128001B79002B0ED008230593254A254BD31A6B
:10313800DB081B0443F0020323491846FDF7AEFDE4
:10314800059B32E0039B1A68029B1B8819461046B0
:10315800FFF784FF039B93F90420029B9B78194691
:103168001046FFF7DDFE039B93F904301846FFF77E
:10317800F7FE039B5B79114ADB00134401221A71A5
:10318800039B5B7919460D4A039B42F831300023B3
:1031980005930B4A0B4BD31ADB081B0443F00303BC
:1031A8000A491846FDF77AFD059B184607B05DF8F1
:1031B80004FB00BF004F0400D8070020DC070020F4
:1031C800744A04004C4A0400504F0400744F040031
:1031D80000B583B00190019B002B03D106498720DD
:1031E80000F0A2FB019B1B6800211846FFF74EFF69
:1031F80000BF03B05DF804FB004F040000B583B0C6
:103208000190019B002B03D106498D2000F08CFB17
:10321800019B1B6804211846FFF738FF00BF03B065
:103228005DF804FB004F040000B587B003900291DD
:1032380001928DF80330039B002B03D1214996207E
:1032480000F072FB4FF48032029B02FA03F30593FD
:10325800029B50339BB29B00ADF81230019B23F0C8
:103268007F430193039B1B6805991846FFF7C2FE2D
:10327800039B1B6805991846FFF721FF039B1B68F2
:10328800BDF8122011461846FFF7CBFE039B1B68BA
:10329800019A02991846FFF789FE039B1B68059956
:1032A8001846FFF702FF9DF80330002B05D0039B5B
:1032B8001B6805991846FFF793FE00BF07B05DF835
:1032C80004FB00BF004F040000B585B003900291D5
:1032D80013468DF80730039B002B03D10B49A92017
:1032E80000F022FB039B1B6802991846FFF7DDFEDE
:1032F8009DF80730002B05D0039B1B6802991846E0
:10330800FFF76EFE00BF05B05DF804FB004F040038
:1033180000B583B001900091019B002B03D10A49AD
:10332800B32000F001FB019B1B6800991846FFF7CA
:10333800C6FE019B1B6800991846FFF75BFE00BF9D
:1033480003B05DF804FB00BF004F040000B583B074
:1033580001900B46ADF80230019B002B03D10F49B9
:10336800BA2000F0E1FA019B1B68BDF80220114663
:103378001846FFF749FE0346002B09D0019B1B683E
:10338800BDF8022011461846FFF74BFE012300E066
:103398000023184603B05DF804FB00BF004F04008B
:1033A80082B001900091019A009BD31A23F07F43C9
:1033B800184602B07047000000B58BB00390029128
:1033C80001920093039B002B03D15749CD2000F0B5
:1033D800ABFA4FF48032029B02FA03F30993029B83
:1033E80050339BB29B00ADF82230019B23F07F4302
:1033F800019309990398FFF78BFF039B1B681846F5
:10340800FFF724FE0790039B1B6802991846FFF7F5
:10341800DBFD0690039B1B68079A02991846FFF785
:10342800C5FD039B1B68BDF8222011461846FFF70F
:10343800F8FD07990698FFF7B3FF0346012B0AD159
:103448001020FFF79BFD039B1B68BDF82220114647
:103458001846FFF7E6FD039B1B681846FFF7F6FDC5
:10346800079007990198FFF79BFF0590039B1B683E
:1034780009991846FFF719FE059B012B15D1039BE7
:103488001868019B01331A460299FFF78FFD102037
:10349800FFF774FD039B1B681846FFF7D7FD02462C
:1034A800079B934235D00D2339E0039B1B68019A93
:1034B80002991846FFF77AFD039B1B681846FFF729
:1034C800C5FD0790019B013B07991846FFF768FF68
:1034D8000590009BC3F1FF1303F57F43059A9A42B9
:1034E80001D90D231BE0059B002B12D1039B186803
:1034F800019B01331A460299FFF758FD039B1B688D
:103508001846FFF7A3FD0246079B934201D00D23FF
:1035180005E0012209990398FFF7D6FE0023184613
:103528000BB05DF804FB00BF004F040000B583B08A
:1035380001900B468DF803309DF803301A4602219E
:103548000198FFF7C1FE00BF03B05DF804FB00B5AA
:1035580083B001904FF482710198FFF7F7FE03469C
:10356800184603B05DF804FB00B583B001900091E4
:103578004FF48032009B02FA03F319460198FFF7D3
:10358800C7FE00BF03B05DF804FB00B585B001902D
:103598000091009B50339BB29B00ADF80E30BDF8F4
:1035A8000E3019460198FFF7D1FE0346184605B0BC
:1035B8005DF804FB00B583B00190019B1B681846B9
:1035C800FFF744FD0346184603B05DF804FB00B559
:1035D80083B00190019B93F904301846FFF760FC13
:1035E80000BF03B05DF804FB08B5044B1B68044A30
:1035F80012681046984700BF08BD00BFD8070020D2
:10360800DC07002086B0039002910192039B5B09BE
:103618000593059B5B01039AD31A0493029B059AB1
:103628001A60019B049A1A6000BF06B07047000038
:1036380000B585B0019002AA03AB19460198FFF7BF
:10364800E1FF039B074A52F82310029B01229A408C
:10365800039B0A43034941F8232000BF05B05DF8E6
:1036680004FB00BFE466002084B0019000910023B1
:1036780003931FE0019B002B10D0124A039B52F8C2
:103688002330019A9A4209D80F4A039B52F8232003
:103698000E49039B51F823309A4206D10A4A039BEC
:1036A80052F82330009A9A4201D2039B06E0039B0A
:1036B80001330393039B062BDCD90023184604B07F
:1036C800704700BFB44F0400EC4F0400D04F040013
:1036D80000B585B0019001990020FFF7C5FF039060
:1036E800034A039B52F82330184605B05DF804FBE3
:1036F800B44F040000B585B0019002AA03AB194687
:103708000198FFF77FFF039B084A52F82320029B8A
:1037180022FA03F303F00103002B14BF0123002353
:10372800DBB2184605B05DF804FB00BFE466002074
:1037380000B585B0019002AA03AB19460198FFF7BE
:1037480061FF039B084A52F82310029B012202FAE8
:1037580003F3DA43039B0A40034941F8232000BFDF
:1037680005B05DF804FB00BFE466002000B583B037
:10377800002301930023019305E00198FFF758FF08
:10378800019B01330193019B582BF6D9034B01226E
:103798001A700023184603B05DF804FBF066002099
:1037A80000B589B0019000912E4B1B7883F001037E
:1037B800DBB2002B02D048F208134EE0019B002B2D
:1037C80002D148F20E1348E0009B002B02D148F2C8
:1037D8000E1342E0009B1B680493049B002B03D04C
:1037E800049BB3F5306F02D948F2071335E059212D
:1037F8000498FFF739FF03901B4A039B52F82330C4
:1038080006931A4A039B52F82330079348F204138D
:1038180005931EE00698FFF75BFF02900698FFF7F6
:1038280069FF0346002B0DD0002305930698FFF788
:103838007FFF079B0E4A1A44019B1A60009B029A5D
:103848001A6009E0079A029B13440793069B013309
:103858000693069B582BDDD9059B184609B05DF8E1
:1038680004FB00BFF0660020D04F0400085004009D
:10387800E407002000B587B001900091002304936D
:10388800009B019A02FB03F3039303AA04AB1146BE
:103898001846FFF785FF0590059B002B06D1049B72
:1038A800039A0021184640F022FA01E0002304930D
:1038B800049B184607B05DF804FB000000B585B00E
:1038C8000190174B1B7883F00103DBB2002B20D14A
:1038D800019B002B1FD0002303930023029314E0C5
:1038E800039B104A1344019A9A4204D10298FFF7A5
:1038F8009FFE00BF10E00298FFF7EAFE0246039B16
:1039080013440393029B01330293029B582BE7D97C
:1039180002E000BF00E000BF05B05DF804FB00BF97
:10392800F0660020E407002000B585B0034600914A
:10393800ADF80630BDF80630ADF80830009B0393AB
:1039480002AB1A46002144F20200FEF791FC00BFC8
:1039580005B05DF804FB86B001900091019B53E827
:10396800011F8AB2D88902449889824228BF121A54
:103978001889824202BFBFF32F8F002307E0C2EAF3
:10398800010243E801200028E9D14FF001038DF836
:103998000F30059002910492029A009B1A609DF8DC
:1039A8000F30DBB2184606B0704784B00190019919
:1039B80051E8013FC3EA034341E80132002AF7D145
:1039C8000392029300BF04B0704786B00190009143
:1039D800019B53E8021F1FFAA1F2D888824202BF56
:1039E800BFF32F8F00230DE0D889024498898242C3
:1039F80028BF121AC1EA024243E802200028E8D18F
:103A08004FF001038DF80F30059002910492029A4D
:103A1800009B1A609DF80F30DBB2184606B070475D
:103A280084B00190019951E8023FC3EA234341E879
:103A38000232002AF7D10392029300BF04B0704704
:103A480084B00390029111461A460B46ADF8063031
:103A58001346ADF80430029B002B01D10E231FE062
:103A6800BDF80630BDF80420B3FBF2F101FB02F209
:103A78009B1A9BB2002B01D0092311E0039B029AE9
:103A88001A60039B00225A60039B00229A60039BE2
:103A9800BDF806209A81039BBDF80420DA81002333
:103AA800184604B0704700B585B001900091009B9E
:103AB80019460198FFF74FFF0346002B07D0019BDB
:103AC8001B68009A128813440393039B00E00023A9
:103AD800184605B05DF804FB00B583B0019000916D
:103AE800009B1A88009B5B889A4204D10198FFF7D3
:103AF8005CFF012300E00023184603B05DF804FBD7
:103B080000B585B001900091009B19460198FFF718
:103B18005CFF0346002B07D0019B1B68009A528864
:103B280013440393039B00E00023184605B05DF897
:103B380004FB00B583B001900091009B1A88009B9C
:103B48005B889A4204D10198FFF76AFF012300E0DD
:103B58000023184603B05DF804FB10B487B0019049
:103B68000091019B009A53E8004F104643E800017A
:103B780091F0000FF7D1059404900391059B184626
:103B880007B05DF8044B704710B487B001900091FE
:103B9800019B009A53E8004F44EA020043E8000101
:103BA80091F0000FF6D1059404900391049B1846F8
:103BB80007B05DF8044B704710B487B001900091CE
:103BC800019B009A53E8004F04EA020043E8000111
:103BD80091F0000FF6D1059404900391059B1846C7
:103BE80007B05DF8044B704710B487B0019000919E
:103BF800019B009A53E8004F04EB020043E80001E0
:103C080091F0000FF6D1059404900391049B184697
:103C180007B05DF8044B704710B487B0019000916D
:103C2800019B009A53E8004FA4EB020043E800010F
:103C380091F0000FF6D1059404900391049B184667
:103C480007B05DF8044B704700B583B001900121BF
:103C58000198FFF799FF0346184603B05DF804FB87
:103C680000B583B0019000210198FFF7A5FF034636
:103C7800184603B05DF804FB00B583B001900B460D
:103C88008DF80330019B002B03D10849E820FFF78A
:103C98004BFE019BDA689DF803300199098A01FB04
:103CA80003F31344184603B05DF804FB24500400E2
:103CB80000B583B001900091019B002B03D1084906
:103CC800F520FFF731FE009B019AD2689B1A019AF2
:103CD800128AB3FBF2F3DBB2184603B05DF804FBBB
:103CE8002450040000B585B00190019B002B01D140
:103CF8000E234CE0019B1B68002B03D12649FF20B3
:103D0800FFF712FE019B5B68002B04D122494FF498
:103D18008070FFF709FE019B9B68002B04D11E49A8
:103D280040F20110FFF700FE019BDB68002B04D175
:103D380019494FF48170FFF7F7FD019B1B8A002B8F
:103D480004D1154940F20310FFF7EEFD019B9A6874
:103D5800019B5B68D31A8DF80F30019B1B68019A91
:103D680052681A6007E0019B1A681368591C1160B1
:103D78009DF80F201A709DF80F305A1E8DF80F20ED
:103D8800002BF0D1019B1B6800221A7100231846F2
:103D980005B05DF804FB00BF2450040000B585B0F1
:103DA8000190019B002B04D11C494FF49270FFF73E
:103DB800BBFD002303930020FFF714F8019B1B6849
:103DC8001A68019B5B689A421FD9019B1B681A6895
:103DD800013A1A601B681B7819460198FFF74CFFD7
:103DE8000390019B9A68019B1B681B68D31A8DF886
:103DF8000B30019B1B681B799DF80B209A4204D954
:103E0800019B1B689DF80B201A710020FEF7FEFF2E
:103E1800039B184605B05DF804FB00BF245004005E
:103E280010B584B001900091019B002B04D1114979
:103E380040F24710FFF778FD009B002B04D10D4995
:103E48004FF4A470FFF770FD009B03930020FEF76A
:103E5800C9FF019B1B681C68621C1A6003990198C2
:103E6800FFF726FF034623700020FEF7CFFF00BFB1
:103E780004B010BD2450040000B583B00190019B2C
:103E8800002B03D10C493120FFF74EFD019B9B68A5
:103E9800002B0CD0019B5B69019A1069019A11688B
:103EA800019A92689847019B00229A6000E000BF3F
:103EB80003B05DF804FB00BF785004000EB400B5F1
:103EC80084B00190019B002B03D118494220FFF7D1
:103ED8002BFD019B5B69002B03D114494320FFF79D
:103EE80023FD019B1B68002B03D110494420FFF7D9
:103EF8001BFD019B5B68002B03D10C494520FFF794
:103F080013FD059B002B0AD00023039306AB0393F4
:103F180003AB1A460599019800F0B0F900E000BF1C
:103F280004B05DF804EB03B0704700BF785004009C
:103F380000B583B001900B468DF80330019B1A68D9
:103F4800019B9B68581C0199886013449DF80320C5
:103F58001A70019B9A68019B5B689A4202D3019888
:103F6800FFF78AFF00BF03B05DF804FB00B587B018
:103F7800039002910192009300230593009B03F0A4
:103F88000103002B24D00BE0029B01330293059B15
:103F9800013305939DF8133019460398FFF7C8FFBE
:103FA800029B1B788DF813309DF81330002BEBD152
:103FB80006E0019B013B019320210398FFF7B8FF1E
:103FC800019A059B9A422ED9019B002BF1D12AE038
:103FD800029B002B0BD002983FF005FF059006E0EE
:103FE800019B013B019320210398FFF7A1FF019A50
:103FF800059B9A420FD9019B002BF1D10BE0029B44
:1040080001330293059B013305939DF8133019463C
:104018000398FFF78DFF029B1B788DF813309DF8EE
:104028001330002BEBD100BF07B05DF804FB000094
:1040380000B589B00390029101920093029B079307
:104048000123069307E0079A019BB2FBF3F307935A
:10405800069B01330693079A019B9A42F3D2009A72
:10406800069B9A4201D9009B06930B9B03F0010320
:10407800002B22D10A9B002B1FD00B9B03F00203BD
:10408800002B06D0009B002B03D130238DF817306E
:1040980002E020238DF8173008E00A9B013B0A93C1
:1040A8009DF8173019460398FFF742FF0A9B002B2B
:1040B80003D0069A0A9B9A42EFD301230793009BE9
:1040C800012B03D9009B013B009309E0029A079B4F
:1040D800B2FBF3F30493049A019B9A4200D205E0E1
:1040E800079B019A02FB03F30793E8E7029A079BF1
:1040F800B2FBF3F30493049B079A02FB03F3029ABF
:10410800D31A0293154A049B13441B781946039843
:10411800FFF70EFF079A019BB2FBF3F30793079B88
:10412800002BE3D10B9B03F00103002B11D00A9B5A
:10413800002B0ED006E00A9B013B0A93202103982E
:10414800FFF7F6FE0A9B002B03D0069A0A9B9A42B9
:10415800F1D300BF09B05DF804FB00BF145104009F
:1041680000B589B00590049103920293049B002B3B
:10417800B8BF5B4206930123079307E0039B069AA7
:1041880092FBF3F30693079B01330793039B069A6D
:104198009A42F3DA029A079B9A4201D9029B079343
:1041A8000A9B002B0AD0049B002B04DB0B9B03F01B
:1041B8000403002B02D00A9B013B0A930B9B03F0DC
:1041C8000203002B02D0029B002B16D00B9B03F09E
:1041D8000103002B11D10A9B002B0ED006E00A9B8D
:1041E800013B0A9320210598FFF7A2FE0A9B002BAA
:1041F80003D0079A0A9B9A42F1D3049B002B07DA53
:10420800049B5B4204932D210598FFF791FE08E07B
:104218000B9B03F00403002B03D02B210598FFF719
:1042280087FE0B9B03F00203002B19D00B9B03F0B6
:104238000103002B14D1029B002B11D10A9B002BE8
:104248000ED006E00A9B013B0A9330210598FFF740
:104258006FFE0A9B002B03D0079A0A9B9A42F1D360
:1042680004990B9B01930A9B0093029B039A059860
:10427800FFF7DEFE00BF09B05DF804FB00B58FB0A4
:10428800059004910392059B002B04D1AD4940F29F
:104298005220FFF749FB059B5B69002B04D1A94914
:1042A8004FF41570FFF740FB059B1B68002B04D1EA
:1042B800A44940F25520FFF737FB059B5B68002BAC
:1042C80004D1A04940F25620FFF72EFB049B002B97
:1042D80000F09381049B1B788DF83730049B0133E1
:1042E80004939DF83730002B00F07E819DF837301D
:1042F800252B40F06D8100230A9301230C93049B26
:104308001B788DF837309DF83730302B0DD0302B97
:104318001BDC2B2B11D02D2B17D10A9B43F001034B
:104328000A93049B0133049312E00A9B43F00203AF
:104338000A93049B013304930AE00A9B43F00403A5
:104348000A93049B0133049302E000230C9300BFFB
:104358000C9B002BD3D1002309939DF837302A2BCF
:104368000CD1039B1B68191D039A11601B68099ADD
:1043780013440993049B013304931AE0049B1B78AC
:104388008DF837309DF837302F2B12D99DF83730FC
:10439800392B0ED8049B01330493099A13469B00CA
:1043A80013445B001A469DF837301344303B099399
:1043B800D3E700230B93049B1B788DF837309DF8C7
:1043C80037302E2B1DD1049B01330493049B1B789B
:1043D8008DF837309DF837302F2B12D99DF83730AC
:1043E800392B0ED8049B013304930B9A13469B0078
:1043F80013445B001A469DF837301344303B0B9347
:10440800E4E7049B1B788DF837309DF837306C2B28
:1044180003D09DF83730682B07D1049B01330493F0
:10442800049B1B788DF83730EFE79DF83730252B44
:1044380000F0C480252BC0F2C680782B00F3C3801F
:10444800582BC0F2C080583B202B00F2BC8001A240
:1044580052F823F051450000CF450000CF45000039
:10446800CF450000CF450000CF450000CF450000F4
:10447800CF450000CF450000CF450000CF450000E4
:10448800E144000003450000CF450000CF4500008F
:10449800CF450000CF45000003450000CF45000090
:1044A800CF450000CF450000CF450000CF450000B4
:1044B800CF45000091450000CF450000CF450000E2
:1044C80075450000CF45000027450000CF45000096
:1044D800CF45000051450000039B1B68191D039A36
:1044E80011601B680C930C9B8DF81F309DF81F30D2
:1044F80019460598FFF71CFD66E0039B1B68191D0C
:10450800039A11601B680C930A9B0193099B009303
:104518000B9B0A220C990598FFF722FE54E0039B97
:104528001B68191D039A11601B680C930C990A9B50
:104538000193099B00930B9B0A220598FFF778FDCE
:1045480042E000BFC4500400039B1B68191D039A76
:1045580011601B680C930C990A9B0193099B0093AB
:104568000B9B10220598FFF763FD2DE0039B1B684A
:10457800191D039A11601B6808930A9B099A0899E8
:104588000598FFF7F3FC1FE0039B1B68191D039AAE
:1045980011601B680C9330210598FFF7C9FC78213E
:1045A8000598FFF7C5FC0C99002301930823009395
:1045B800082310220598FFF73BFD05E02521059803
:1045C800FFF7B6FC00E000BF049B0133049305E04D
:1045D8009DF8373019460598FFF7AAFC049B1B780D
:1045E800002B7FF477AE00E000BF059B1B7B002B00
:1045F80004D00598FFF740FC00E000BF0FB05DF85D
:1046080004FB00BF00B583B001900198FFF76AFB77
:104618000346184603B05DF804FB00B58BB0019063
:104628000091019B1B8A043B0793009A079B134444
:10463800DA1C079BB2FBF3F38DF81B300198FFF7E8
:10464800ADFB0590059B002B01D1002338E0059BAD
:1046580000221A71059B01225A71079B9AB2059B89
:10466800DA80059B09939DF81B30013B0493099B55
:10467800019A1A60002308931DE00198FFF78EFB4A
:104688000390039B002B0ED0059B5B790133DAB2B4
:10469800059B5A71099B039A1A60039B019A1A6039
:1046A800039B099304E0059800F00EF8002307E047
:1046B800089B01330893089A049B9A42DDD3059B13
:1046C80018460BB05DF804FB00B58BB00190019B58
:1046D8000793079B5B798DF81B30019B08939DF826
:1046E8001B30013B05930023099305E0089B1B68D9
:1046F8000893099B01330993099A059B9A42F5D3BC
:10470800089B1B680493019B0893002309930BE003
:10471800089B1B68039308990498FFF781FB039B88
:104728000893099B013309939DF81B30099A9A4213
:10473800EED300BF00BF0BB05DF804FB00B585B039
:104748000190019B0393039B043301211846FFF753
:104758004BFA00BF05B05DF804FB00B587B00190C7
:10476800019B0593059B043301211846FFF754FA72
:104778000346039303AB0493049B1B78002B02D1DD
:104788000198FFF7A1FF00BF07B05DF804FB000028
:1047980000B591B00390029101920093039B002B06
:1047A80003D14349B620FFF7BFF8039B0993039B46
:1047B8000F93099BDB881A46099B5B7902FB03F37D
:1047C800043B0893009A089B9A4203D33849C420B3
:1047D800FFF7AAF8099BDB880793009B1A1D079B24
:1047E800B2FBF3F30E93009B0433079AB3FBF2F288
:1047F800079901FB02F29B1A0D93019B1A68009B13
:104808001344089A9A4203D2089A009BD31A01E0EB
:10481800019B1B680C93019B0C9A1A6005E00F9B87
:104828001B680F930E9B013B0E930E9B002BF6D13A
:1048380000230B93079A0D9BD31A0A930A9A0C9B91
:10484800934228BF13460A932AE0029A0B9B13440B
:1048580006930F9A0D9B1344043305939DF8483033
:10486800002B05D00A9A059906983FF017FA04E03C
:104878000A9A069905983FF011FA00230D930F9BA9
:104888001B680F930C9A0A9BD31A0C930B9A0A9BDA
:1048980013440B93079A0C9B934228BF13460A9321
:1048A8000C9B002BD1D100BF00BF11B05DF804FBF9
:1048B8002451040000B589B0059004910392029335
:1048C800039B079307AA00230093029B049905986A
:1048D800FFF75EFF079B039A9A4203D00349F6202D
:1048E800FFF722F800BF09B05DF804FB245104006B
:1048F80000B589B00590049103920293039B079336
:1049080007AA01230093029B04990598FFF740FF2B
:10491800079B039A9A4204D004494FF48070FFF72A
:1049280003F800BF09B05DF804FB00BF2451040080
:1049380082B003468DF807309DF8073003F01F0258
:1049480006499DF907305B09012000FA02F260333D
:1049580041F8232000BF02B0704700BF00E100E02B
:1049680000B583B00190019B002B03D1064972204A
:10497800FEF7DAFF019B00221A60BFF35F8F00BFCA
:1049880000BF03B05DF804FBD451040000B585B046
:104998000020FEF727FAF1EE103A0193019B0393EA
:1049A800039B23F09F030293029BE1EE103A00BFA2
:1049B800BFF35F8F00BF2620FFF7BAFF0020FEF786
:1049C80025FA039B03F00703002B03D003497D203E
:1049D800FEF7AAFF00BF05B05DF804FB20520400F3
:1049E80008B5064B00221A700548FFF7B9FF0549BC
:1049F800054800F033F80023184608BDF866002083
:104A0800F466002078520400FC66002008B5FFF721
:104A1800BDFF20BF00BF40BF00BF20BF00BF00BF19
:104A280008BD82B00190019B9B6800229A60019B9F
:104A38009B6800221A61019B9B6800225A61019BB6
:104A48009B680022DA60019B9B6800225A60019BE8
:104A58009B6800221A6000BF02B0704700B583B09F
:104A680001900091019B002B03D110495020FEF7C3
:104A78005BFF009B002B03D10C495120FEF754FF2C
:104A8800019B009A1A60019B1B681A68019B5A6077
:104A9800019B5A68019B1B685B689A4202D1019B83
:104AA80000225A6000BF03B05DF804FB8452040082
:104AB80000B585B001900091019B002B03D11849E6
:104AC8003A20FEF731FF009B002B03D114493B200D
:104AD800FEF72AFF019B5B6803930FE0019B9B682D
:104AE800039A1268009910469847034683F0010319
:104AF800DBB2002B07D1039B1B680393039B1B6846
:104B0800002BEBD100E000BF039B1A68009B1A60E2
:104B1800039B009A1A6000BF05B05DF804FB00BF54
:104B2800FC52040000B585B00190019B002B03D115
:104B38000C495120FEF7F8FE019B5B681B68039344
:104B4800019B5B681B68002B06D0019B5B681A6899
:104B5800019B5B6812681A60039B184605B05DF8F4
:104B680004FB00BFFC52040000B583B00190019B18
:104B7800002B03D105495D20FEF7D6FE019B5B683B
:104B88001B68184603B05DF804FB00BFFC52040024
:104B980000B585B001900091019B002B03D1164907
:104BA8006920FEF7C1FE009B002B03D112496A2041
:104BB800FEF7BAFE00238DF80B30019B5B68039368
:104BC8000FE0039B1B68009A9A4207D1009B1A6862
:104BD800039B1A6001238DF80B3006E0039B1B68CA
:104BE8000393039B1B68002BEBD19DF80B301846F1
:104BF80005B05DF804FB00BFFC52040000B585B0A9
:104C08000190019800F00EF80390039B002B01D04F
:104C1800039B00E0024B184605B05DF804FB00BF9B
:104C28005453040086B00190164B0593164B049319
:104C38001FE0049A059BD31ADB10DA0F13445B10AC
:104C4800DB00059A13440393039B1B680293029AA3
:104C5800019B9A4202D9039B04930AE0029A019BA2
:104C68009A4203D2039B0833059302E0039B5B68D7
:104C780004E0059A049B9A42DBD30023184606B049
:104C8800704700BF28570400405804004FF0804385
:104C9800D3F818341B0C03F00103002B14BF0123B5
:104CA8000023DBB21846704782B003468DF8073000
:104CB8004FF08043D3F80C3403F001129DF807300D
:104CC80043F480339A420CBF01230023DBB2184619
:104CD80002B0704708B50120FFF7E6FF0346184603
:104CE80008BD08B5FFF7D2FF0346184608BD000007
:104CF80008B500F057FB024B00229A7000BF08BDB0
:104D08000467002008B500F067FB00BF08BD00007D
:104D180008B500F07BFB024B00225A7000BF08BDAB
:104D28000467002000B583B000230193104B1B7863
:104D3800002B02D08523019314E00D4B00229A60CA
:104D48000B4B00225A600A4B00221A61084B0022C2
:104D5800DA60084800F0D6FA019000F0F5FA044B42
:104D680001221A70019B184603B05DF804FB00BFCE
:104D7800046700205950000084B001900091019B05
:104D88001B68039306E0039A009B9A420DD0039B8D
:104D98001B680393039B002BF5D1019B1A68009BAA
:104DA8001A60019B009A1A6000E000BF04B07047C7
:104DB80084B00190019B1B680393039B002B03D0D5
:104DC800039B1A68019B1A60039B184604B070473E
:104DD80000B583B00190224B1B78002B03D12149E9
:104DE800E920FEF7A1FD1E4B9B78DBB2002B12D009
:104DF800019B002B03D0019B5B6801209847002092
:104E0800FDF7F0FF164BDB680133154AD36000202D
:104E1800FDF7FCFF17E00020FDF7E4FF019B002BE6
:104E280003D001991048FFF7A7FF0D4BDB68002B53
:104E380001D100F09DFA0A4BDB680133084AD360C0
:104E48000020FDF7E3FF064BDB68002B04D1054982
:104E580040F20510FEF768FD00BF03B05DF804FBE3
:104E680004670020485804001467002008B5124B56
:104E78001B78002B04D111494FF48570FEF754FDBF
:104E88000D4BDB68002B04D10C4940F20B10FEF7E8
:104E98004BFD0020FDF7A6FF074BDB68013B064AE8
:104EA800D360054BDB68002B01D1FFF721FF002001
:104EB800FDF7ACFF00BF08BD046700204858040098
:104EC80008B5074B1B78002B04D106494FF48C70AA
:104ED800FEF72AFDFFF705FF0346184608BD00BF89
:104EE800046700204858040000B583B00190234BA4
:104EF8001B78002B04D122494FF49370FEF714FD60
:104F08001E4B5B78DBB2002B12D0019B002B03D029
:104F1800019B5B68002098470020FDF763FF174B53
:104F28005B680133154A53600020FDF76FFF17E0F7
:104F38000020FDF757FF019B002B03D00199114872
:104F4800FFF71AFF0D4B5B68002B01D1FFF7DAFE64
:104F58000A4B5B680133094A53600020FDF756FF8E
:104F6800064B5B68002B04D105494FF4A170FEF78E
:104F7800DBFC00BF03B05DF804FB00BF0467002042
:104F8800485804000C67002008B5124B1B78002B0A
:104F980004D1114940F24710FEF7C6FC0D4B5B687F
:104FA800002B04D10C494FF4A470FEF7BDFC00207F
:104FB800FDF718FF074B5B68013B064A5360054B3A
:104FC8005B68002B01D1FFF7A3FE0020FDF71EFF51
:104FD80000BF08BD046700204858040008B5074B07
:104FE8001B78002B04D1064940F25510FEF79CFCB3
:104FF800FFF770FE0346184608BD00BF046700208F
:105008004858040000B585B003468DF807309DF870
:105018000730002B02D10C4B039301E00B4B039399
:105028000398FFF7C5FE0290029B002B06D0029B57
:105038005B689DF8072010469847F1E700BF00BF5E
:1050480005B05DF804FB00BF0C6700201467002062
:1050580000B583B003468DF807309DF80730002B64
:1050680005D10A4B01225A700020FFF7CBFF9DF8AB
:105078000730012B05D1054B01229A700120FFF75B
:10508800C1FF00BF03B05DF804FB00BF0467002048
:1050980082B003468DF807309DF8073003F01F02F1
:1050A80005499DF907305B09012000FA02F241F831
:1050B800232000BF02B0704700E100E082B0034641
:1050C80000918DF807309DF90730002B0CDA009B12
:1050D800DAB20C499DF8073003F00F03043B520184
:1050E800D2B20B441A7609E0009BDAB206499DF960
:1050F80007305201D2B20B4483F8002300BF02B03C
:10510800704700BF00ED00E000E100E082B00190D0
:10511800019B1B0B5BB2184602B0704700B583B009
:1051280003460A468DF8073013468DF806309DF879
:105138000630072B03D908496B20FEF7F5FB9DF8CD
:1051480006209DF9073011461846FFF7B7FF00BF44
:1051580003B05DF804FB00BF9C58040000B583B0A1
:1051680003468DF807309DF907301846FFF790FF82
:1051780000BF03B05DF804FB82B003468DF807302A
:105188000F4A9DF90730002B00DA1F335B115BB221
:1051980052F823209DF90730594203F01F0301F00C
:1051A8001F0158BF4B425BB222FA03F303F001031D
:1051B800002B14BF01230023DBB2184602B070474E
:1051C80000E100E082B001904FF08042019BC2F8FC
:1051D800043300BF02B0704782B001904FF08042A4
:1051E800019BC2F8083300BF02B0704782B0034683
:1051F8008DF807309DF8073003F1804301221A60CB
:1052080000BF02B0704784B00346ADF80630BDF861
:10521800063003F1804300221A60BDF8063003F11E
:1052280080431B680393039B00BF04B0704782B0A0
:105238000346ADF80630BDF8063003F180431B681D
:10524800002B14BF01230023DBB2184602B07047BD
:1052580082B001904FF08042019BC2F8183500BF20
:1052680002B070474FF08043D3F818341B0C03F09A
:105278000103002B14BF01230023DBB2184670473B
:1052880082B003468DF807304FF08043D3F80C34D2
:1052980003F001129DF8073043F480339A420CBFA3
:1052A80001230023DBB2184602B0704700B583B073
:1052B80006238DF807304FF08040FFF727FF03469D
:1052C8001846FFF759FF034683F00103DBB2002BB2
:1052D80013D04FF08040FFF719FF03461A469DF898
:1052E800073019461046FFF719FF4FF08040FFF7C7
:1052F8000DFF03461846FFF731FF00BF03B05DF806
:1053080004FB000000B585B00190019B002B03D180
:105318000B49A420FEF708FB00230393094B1B79D4
:10532800002B02D08523039305E0064A019B1360F6
:10533800044B01221A71039B184605B05DF804FB63
:10534800DC5804001867002008B5074B1B79002BB0
:1053580003D10649BD20FEF7E7FAFFF7A7FF0120B2
:10536800FFF776FF00BF08BD18670020DC5804006F
:1053780008B50A4B1B79002B03D10949EA20FEF72F
:10538800D3FA4FF48270FFF73EFF0220FFF71AFFAF
:105398000820FFF72BFF00BF08BD00BF18670020DB
:1053A800DC58040008B50A4B1B79002B03D10949C6
:1053B800F720FEF7B9FA0C20FFF718FF00BFFFF738
:1053C80051FF0346002BFAD100BF00BF08BD00BF44
:1053D80018670020DC58040008B50A4B1B79002B1D
:1053E80003D10949FF20FEF79FFA4FF48070FFF7B9
:1053F8000AFF0120FFF7E6FE0020FFF7F7FE00BFD7
:1054080008BD00BF18670020DC58040008B50B4B26
:105418001B79002B04D10A4940F20710FEF784FAE1
:105428000420FFF7E3FE00BF0120FFF729FF034632
:10543800002BF9D100BF00BF08BD00BF18670020CE
:10544800DC58040008B54FF48070FFF7F0FE0346FF
:10545800002B0AD04FF48070FFF7D5FE0120FFF72C
:10546800BBFE0C4B1B68002098474FF48270FFF777
:10547800DEFE0346002B0AD04FF48270FFF7C3FE0E
:105488000220FFF7A9FE034B1B680120984700BFC5
:1054980008BD00BF1867002082B003468DF80730AA
:1054A8009DF8073003F01F0205499DF907305B0995
:1054B800012000FA02F241F8232000BF02B0704731
:1054C80000E100E082B0034600918DF807309DF9B5
:1054D8000730002B0CDA009BDAB20C499DF8073034
:1054E80003F00F03043B5201D2B20B441A7609E0D1
:1054F800009BDAB206499DF907305201D2B20B443B
:1055080083F8002300BF02B0704700BF00ED00E041
:1055180000E100E000B583B003460A468DF8073085
:1055280013468DF806309DF80630072B03D9084935
:105538006B20FEF7F9F99DF806209DF90730114612
:105548001846FFF7BFFF00BF03B05DF804FB00BFBC
:105558002C59040000B583B003468DF807309DF937
:1055680007301846FFF798FF00BF03B05DF804FB4B
:1055780000B583B00346ADF80630BDF806301846CE
:1055880000F026F803461B68012B0CBF01230023FB
:10559800DBB2184603B05DF804FB00B585B00346DE
:1055A800ADF80630BDF80630184600F011F803468D
:1055B8001A4600231360BDF80630184600F008F8B4
:1055C80003461B680393039B00BF05B05DF804FB0B
:1055D80082B00346ADF80630BDF8063003F18043CB
:1055E80003F5C043184602B07047000082B001902E
:1055F800034A019BC2F8043300BF02B0704700BFE2
:105608000060004082B00190034BD3F80423019B53
:105618001340184602B070470060004082B0019005
:10562800084A019B03F5A27352F82330054943F059
:105638000102019B03F5A27341F8232000BF02B0C9
:10564800704700BF0060004084B003900291134689
:105658008DF80730144A039B03F5A27352F82330E0
:10566800114923F44F3323F44073039A02F5A272CD
:1056780041F822300C4A039B03F5A27352F8232009
:10568800029B1B0203F47C519DF807301B0403F4B2
:1056980040330B4304491A43039B03F5A27341F8B3
:1056A800232000BF04B070470060004082B0019022
:1056B800054A019B03F5A27352F823301B0A03F035
:1056C8003F03184602B070470060004082B0019066
:1056D800064A019B03F5A27352F823301B0C03F012
:1056E8000303DBB2184602B0704700BF00600040F9
:1056F80000B583B00190019B1B68292B04D90B4985
:1057080040F2CD10FEF710F9019B1B681F2B02D841
:105718004FF0A04306E0019B1B6803F01F02019BAA
:105728001A60034B184603B05DF804FB6459040083
:105738000003005000B585B00190084611461A468E
:1057480003468DF803300B468DF8023013468DF86A
:10575800013001AB1846FFF7CBFF03909DF80320FB
:105768009DF802305B001A439DF801309B001A43F4
:105778009DF818301B0242EA03019DF81C301B04F7
:10578800019A1943039B02F5E07243F8221000BF07
:1057980005B05DF804FB00B585B003900B468DF8A5
:1057A8000B309DF80B30002201920022009200225B
:1057B80000210398FFF7BEFF00BF05B05DF804FBAA
:1057C80000B585B0019001AB1846FFF791FF039033
:1057D800019A039B02F5E07253F8223023F002038A
:1057E8000293019A039B02F5E072029943F8221092
:1057F80000BF05B05DF804FB00B585B001900B460D
:105808008DF8033001AB1846FFF772FF0390019A39
:10581800039B02F5E07253F82230019A23F44031D9
:10582800039B02F5E07243F82210019A039B02F5EC
:10583800E07253F822309DF8032012041146019AB1
:105848001943039B02F5E07243F8221000BF05B02C
:105858005DF804FB00B585B0019001AB1846FFF771
:1058680047FF0390039800F020F80246019B22FAB4
:1058780003F303F00103184605B05DF804FB00B517
:1058880085B0019001AB1846FFF732FF0390019AEB
:10589800039B02F5E07253F822301B0C03F003035C
:1058A800DBB2184605B05DF804FB82B00190019B9D
:1058B800D3F81035184602B07047000000B589B01B
:1058C800039002910192184A05AB92E8030083E81D
:1058D8000300039A029B1344022B04D9134940F294
:1058E800FD20FEF721F8039B079311E0079B9B001F
:1058F80020336B4453F80C3C1846FFF7D6FF02469A
:10590800019B1A60019B04330193079B01330793A2
:10591800039A029B1344079A9A42E7D300BF00BF39
:1059280009B05DF804FB00BF9859040064590400ED
:1059380084B001900091009B0393019BDB080293C4
:10594800019B03F0070301930122019B02FA03F371
:105958000399029A0A4412781340184604B0704713
:1059680084B001900091009B0393019BDB08029394
:10597800019B03F007030193039A029B13441B78CE
:105988005AB20121019B01FA03F35BB2134359B2E6
:10599800039A029B1344CAB21A7000BF04B070473E
:1059A80082B001900C4A019B1344303393F90030C4
:1059B800002B09DB084A019B1344303393F900306C
:1059C800072B01DC012300E0002303F00103DBB215
:1059D800184602B0704700BF2067002082B00190CF
:1059E800064A019B1344303393F90030072BCCBF90
:1059F80001230023DBB2184602B07047206700205D
:105A080082B00190064A019B1344303393F9003069
:105A1800DB43DBB2DB09DBB2184602B0704700BFDC
:105A28002067002084B00390029101928DF8033022
:105A3800029B59B20E4A039B134430330A461A702C
:105A48000B49029B019A41F823209DF8033083F00B
:105A58000103DBB2002B08D0029B083B039A51B22A
:105A6800034A13440A4683F85A2000BF04B070471B
:105A78002067002082B00190044A019B1344303310
:105A8800FF221A7000BF02B0704700BF20670020D5
:105A980000B583B0019004490198FFF761FF00BF8A
:105AA80003B05DF804FB00BF7E67002082B0019060
:105AB800044A019B1344303393F90030184602B06E
:105AC800704700BF2067002082B00190034A019B05
